:020000040800F2
:10000000000003205D0600087D2700087F27000808
:1000100081270008832700088527000800000000CA
:10002000000000000000000000000000C16C00089B
:100030008727000800000000516D0008C96500080E
:10004000AD060008AD060008AD060008AD060008C4
:10005000AD060008AD060008AD060008AD060008B4
:10006000AD060008AD060008AD060008AD060008A4
:10007000AD060008AD060008AD060008AD06000894
:10008000AD060008AD060008AD060008AD06000884
:10009000AD060008AD060008AD060008AD06000874
:1000A000AD060008AD060008AD060008AD06000864
:1000B000AD060008AD060008AD060008AD06000854
:1000C000AD060008AD060008AD060008AD06000844
:1000D000AD060008AD060008AD060008AD06000834
:1000E000AD060008AD060008AD060008AD06000824
:1000F000AD060008AD060008AD060008AD06000814
:10010000AD060008AD060008AD060008AD06000803
:10011000AD060008AD06000889270008AD060008F6
:10012000AD060008AD060008AD060008AD060008E3
:10013000AD060008AD060008AD060008AD060008D3
:10014000AD060008AD060008AD060008AD060008C3
:10015000AD060008AD060008AD060008AD060008B3
:10016000AD060008AD060008AD060008AD060008A3
:10017000AD060008AD060008AD060008000000004E
:10018000AD060008AD060008AD060008AD06000883
:10019000AD060008AD060008AD060008AD06000873
:0C01A00095270008AD060008A127000804
:1001B00010B5054C237833B9044B13B10448AFF3A1
:1001C00000800123237010BD800300200000000088
:1001D0005830020808B5034B1BB103490348AFF37D
:1001E000008008BD00000000840300205830020891
:1001F00001F0FF01102A2BDB10F0070F08D010F8D8
:10020000013B013A8B422DD010F0070F42B3F6D1DB
:10021000F0B441EA012141EA014122F007047FF0F4
:1002200000070023F0E80256083C85EA010586EA4B
:10023000010685FA47F5A3FA87F586FA47F6A5FA87
:1002400087F68EB9EED1F0BC01F0FF0102F0070293
:1002500032B110F8013B013A83EA010313B1F8D13E
:100260000020704701387047002D06BF354603381F
:10027000073815F0010F07D1013015F4807F02BF58
:10028000013015F4C03F0130F0BC0138704700BFA9
:100290007BB972B90029BEBF00204FF0004106E0D3
:1002A00008BF00281CBF6FF000414FF0FF3000F086
:1002B000D3B9ADF1080C6DE904CE002909DB002BA0
:1002C0001ADB00F04DF8DDF804E0DDE9022304B0AC
:1002D0007047404261EB4101002B1BDB00F040F80E
:1002E000DDF804E0DDE9022304B0404261EB4101A6
:1002F000524263EB43037047524263EB430300F007
:100300002FF8DDF804E0DDE9022304B0404261EBA0
:1003100041017047524263EB430300F021F8DDF8DE
:1003200004E0DDE9022304B0524263EB430370476B
:1003300053B94AB9002908BF00281CBF4FF0FF314C
:100340004FF0FF3000F088B9ADF1080C6DE904CE34
:1003500000F006F8DDF804E0DDE9022304B07047A0
:100360002DE9F047089D0F4604468C46002B48D1E6
:100370008A42164661D9B2FA82F34BB1C3F1200228
:1003800001FA03FC20FA02F29E4042EA0C0C9C4067
:100390004FEA164EB7B2BCFBFEF1220C0EFB11CC9D
:1003A00042EA0C4201FB07F0904209D9B21801F170
:1003B000FF3C80F0EE80904240F2EB800239324404
:1003C000121AA4B2B2FBFEF00EFB102244EA024461
:1003D00000FB07F7A74209D9341900F1FF3280F07A
:1003E000DA80A74240F2D7803444023840EA014024
:1003F000E41B00211DB1DC400023C5E90043BDE83A
:10040000F0878B4206D90DB1C5E9000100210846ED
:10041000BDE8F087B3FA83F1002948D1BB4202D38B
:10042000824200F20781841A67EB0302012094469E
:10043000002DE4D0C5E9004CE1E7002A00F09280ED
:10044000B2FA82F3002B40F0A8808A1A4FEA164EC7
:100450001FFA86FC0121200CB2FBFEF70EFB1722CF
:1004600040EA02420CFB07F0904207D9B21807F1AC
:10047000FF3802D2904200F2E2804746121AA4B23C
:10048000B2FBFEF00EFB102244EA02440CFB00FC1F
:10049000A44507D9341900F1FF3202D2A44500F275
:1004A000CB801046A4EB0C0440EA0740A2E7C1F160
:1004B00020068B4022FA06FC4CEA030C07FA01F4F2
:1004C00020FA06F3F7404FEA1C49234300FA01F8EB
:1004D0001FFA8CFEB7FBF9F01C0C09FB107744EAFD
:1004E000074400FB0EF7A74202FA01F20AD91CEBFF
:1004F000040400F1FF3A80F09B80A74240F298800C
:1005000002386444E41B9FB2B4FBF9F309FB1344C3
:1005100047EA044403FB0EFEA64509D91CEB04047C
:1005200003F1FF3780F08280A6457FD9023B644407
:1005300043EA0040A4EB0E04A0FB02E7BC42734672
:10054000B94663D360D05DB1B8EB030264EB090434
:1005500004FA06F622FA01F31E43CC40C5E9006412
:1005600000214CE76208480842EAC1710B0C43EADB
:1005700000438AB242EA0342B3FBF6F1E407B44611
:100580003746B6461F23B0FBF6F0D21B41EA0041C6
:1005900061E7614614E7104628E7C3F1200120FA1D
:1005A00001F29E4027FA01F19F403A434FEA164E6E
:1005B0001FFA86FCB1FBFEF70EFB1710110C41EA87
:1005C000004107FB0CF8884504FA03F43AD9711886
:1005D00007F1FF3001D288451FD8A1EB0801B1FB1C
:1005E000FEF808FB0CF70EFB181192B242EA01422A
:1005F000BA422FD2B21808F1FF31C6D2BA42C4D2E1
:10060000A8F102013244C0E7F0459CD2BEEB0203E0
:1006100067EB0C070138B94695E7A6EB080841449B
:10062000B81EB1FBFEF808FB0CF7DCE73B467FE7A2
:10063000504667E70846FBE63444023832E7023F9B
:1006400032441BE7A1EB08013846B1FBFEF808FB7A
:100650000CF7C8E7414698E7704700BFDFF834D091
:10066000002103E00C4B5B58435004310B480C4B0A
:1006700042189A42F6D30B4A02E0002342F8043BA8
:10068000094B9A42F9D303F017FD21F07DFF01F0E9
:10069000F3FA7047000003203CCB03080000002061
:1006A00064010020800300203C420120FEE77047E7
:1006B00008B500F0BBFDBDE8084000F03DBD00F00E
:1006C000B7BD704710B50421044620F063FC2046F6
:1006D00010BD000038B50C4B0C4C18800C4B822020
:1006E00019806368984740F6110398420AD1094D72
:1006F00023682C60822098472B688220DB6898470B
:10070000002038BD0120FCE7A60300204C0000209B
:10071000A4030020A80300204FF4A071F020FFF7ED
:10072000D9BF0000F7B5394D2B6804461B698220FC
:100730009847208000284FD02B680DF106025B6996
:1007400001A982209847324BBDF806201B78002B68
:100750004AD040F674639A4240D9ADF80630BDF8ED
:1007600006209B1A9AB20A2A42D90B23B2FBF3F253
:10077000284B1B889A4201D9013B9AB2BDF804303C
:10078000254840F6B8318B4234D8C3F571630E3337
:1007900001689BB20F25B3FBF5F3204D2D88AB42CA
:1007A00084BF05F1FF35ABB28B421D468EB22AD90C
:1007B0009B1B99B21A4F3E68B3B2B2428CBFD31A98
:1007C0009B1A9BB219440529C8BF05600368C4BFC2
:1007D0003A6016466380A68003B0F0BDB32A9CBF82
:1007E000B422ADF80620BAE7A2F5B47292B2BAE725
:1007F0000022C3E7C3F56D6308339BB20E2B01687B
:10080000C8D800252B46C91A89B2D3E7A80300200F
:10081000BC240020A4030020A0030020A603002085
:100820009C03002037B568460D461446FFF77AFF53
:10083000BDF8000030B1BDF802302B60BDF80430C7
:100840002360012003B030BD032821D8DFE800F089
:10085000020B12190F4B1A68B2FA82F252090421E4
:100860000D4803F0BDBE0B4B5A68B2FA82F2520932
:100870000821F5E7074B9A68B2FA82F25209102173
:10088000EEE7044BDA68B2FA82F252092021E7E778
:10089000704700BFAC03002000100240032821D89D
:1008A000DFE800F0020B12190F4B1A68003A18BF6C
:1008B000012204210D4803F093BE0B4B5A68003A05
:1008C00018BF01220821F5E7074B9A68003A18BFC4
:1008D00001221021EEE7044BDA68003A18BF01222A
:1008E0002021E7E7704700BFAC0300200010024062
:1008F00003280DD8DFE800F00206080A04210548A5
:1009000003F073BE0821FAE71021F8E72021F6E78B
:10091000704700BF0010024008B5032811D8DFE877
:1009200000F0020A0C0E0421074803F053FE431E98
:100930005842584108BD0821F6E71021F4E720216C
:10094000F2E70020F3E700BF0010024070B5084D49
:1009500000240126E0B2FFF7DFFF18B12B68012B5E
:1009600018BF2E600134052C05F10405F2D170BDCD
:10097000AC030020012380F8781080F879307047AC
:100980007047002070470000034B4164003918BFD6
:1009900001211970704700BFFB340120704700200F
:1009A0007047836B0BB10846184770474FF6FF70CE
:1009B0007047406803689B691847704770477047E5
:1009C0007047704710B5044600F048FD236803499E
:1009D000D3F890302046BDE810401847000000D002
:1009E00008B503680446D3F8843098472368204646
:1009F000DB6F984700F0ECF8236820465B6F984760
:100A0000292001F0DFFB00F0E3F8236820465B6F4C
:100A10009847F8E710B5044608F066FF23682046BB
:100A2000D3F8BC30BDE81040184700F0FBBC00F024
:100A3000FFBC00F031BD00F0D1BC00F041BD00F0C2
:100A400049BD00F0D5BC08F07DB910B5842104463D
:100A500020F0A0FA204610BD10B590F8341090F8A0
:100A600078400C4B8C421A7809D03AB90A4A0B49A3
:100A70001488088810800C8001221A7010BD002A8A
:100A8000FCD0054A05491488088810800C80002293
:100A9000F3E700BFF4340120F0340120F2340120E8
:100AA00070B50D46194635B9094B0A4A0A4840F255
:100AB000FF2121F0B7FAC0E90F52084B003A18BFE6
:100AC00001221A700368BDE87040D3F890301847CF
:100AD000D8300208103102085E310208FA340120D1
:100AE00008B5094B1B888B4203D8084B1B889342DF
:100AF00005D9074B074A0848A32121F093FA074B71
:100B00001980074B1A8008BDF0340120F23401200F
:100B1000A3310208063202085E310208F6340120D1
:100B2000F8340120034690F87A0018B15868036839
:100B30001B68184770470000012108B500220846CD
:100B400005F0CCFD0A4B186028B90A4B0A4A282147
:100B50000A4821F067FA00220421012005F065FE11
:100B6000074B186018B9074B034A2C21F0E708BD62
:100B7000C00300204932020892320208C132020842
:100B8000BC0300200C330208024B4FF0FF31186801
:100B900005F0EEBDC0030020014B186805F014BE3F
:100BA000C0030020024B0021186805F0E1BD00BF22
:100BB000C0030020FFF7F0BF03480449006800238A
:100BC0001A4605F06DBE00BFBC03002004000020E3
:100BD00013B5084C00231A4601A9206805F091FEC0
:100BE00020684FF0FF33002201A905F08AFE02B011
:100BF00010BD00BFBC03002003685B6C18470120D8
:100C0000704703689B6A1847FEE740F2EF30704771
:100C1000054B0360054B4FF08062C3F88820BFF39B
:100C20004F8FBFF36F8F7047E43C020800E100E094
:100C300010B504464FF45A61FFF7EAFF204620F052
:100C4000A9F9204610BD000082B0002301930E4B8D
:100C50001A6B42F400021A631A6B02F4000201924A
:100C6000019A1A6942F400021A611A6922F4000218
:100C70001A61064B064A1A61064A5A61064B4FF042
:100C800080629A6002B0704700380240502600200F
:100C9000E50E0008090C000800E100E008B50A288C
:100CA00009D8DFE800F006100E0808080810101038
:100CB0001000022008BD054B054A0648902121F08E
:100CC000B1F90020F6E70120F4E700BF4E33020837
:100CD00069330208B433020870B50C46887FFFF709
:100CE000DDFFA18AE28A164B2569586342EA014278
:100CF0005A64628BDD63521A1A642668E168082E12
:100D00000DD19A611A615862207F0E4A42EA006250
:100D1000DA610D4A19625D61DD601A6070BD002202
:100D2000D8611A6148090A0A02F4784200F4FC60AA
:100D30000243C1F3C4010A439A63044AEDE700BFCA
:100D400000B002400900010001230200012303005A
:100D500008B50B280BD8DFE800F00612100A0A0AC3
:100D60000A0808080808022008BD0520FCE7054B12
:100D7000054A06486F2121F055F90020F4E70120CB
:100D8000F2E700BF4E330208FD330208B433020815
:100D90002DE9F04191F81D800C464046FFF7D8FF41
:100DA000A77F05463846FFF7D3FF06463846FFF7CC
:100DB00075FFA18A628B454B521A1A649A61228B85
:100DC000521A1A61E28A586342EA01425A6421695E
:100DD0006268D963DA60D4F800C0207FBCF1800F6C
:100DE0004FEA006229D013D8BCF1200F45EA020077
:100DF00064D0BCF1400F61D0BCF1040F5ED0334B26
:100E0000154345F40035B845DD615BD0304A40E01C
:100E1000BCF5807F07D0BCF5007FF0D142F40032F2
:100E200042F0090203E042F4003242F00A02DA61C1
:100E3000E2681A625E6259612AE0A4682A4342F4B9
:100E40000032271DDF62DA6122785E62596142B1A9
:100E5000012A21D01F4B204A20484FF48D7121F0E8
:100E6000E1F8DA69618822F47F42013922F0100248
:100E700042EA0122DA610121144BDA6942F02002D0
:100E8000DA61DA699206FCD410229A600029BDD09A
:100E9000134A1A60BDE8F081DA69B0F1FF01608899
:100EA00022F47F4200F1FF3022F0100242EA0022D9
:100EB00042F0100218BF0121DA61DDE740F4003092
:100EC000D861B7E742F20132E3E700BF00B0024069
:100ED000012301004734020861340208B4330208D8
:100EE00001230200024B1B68586803685B691847BE
:100EF000FC34012070B5044625460A4B0C30002610
:100F000060602672667245F8203B6022294608F030
:100F100041FE04F55A63EE6024359D42FBD1204624
:100F200070BD00BFE43C0208034B1A68D207FCD432
:100F300023229A60704700BF00B002407047000053
:100F400030B50F4C2568ED07FCD423250904A560B6
:100F500041F001010225FF2B65636164E0630AD063
:100F60000849656241EA0363E361074B22626061FD
:100F7000E060236030BDE561039BA363034BF8E7AA
:100F800000B002400900010001000200010003005E
:100F900030B50E4C2568ED07FCD423251204A5605E
:100FA00042F001020225FF2B65636264E063E160A9
:100FB00008D01B0643F00213E361054B65626061D4
:100FC000236030BD034BE3610123F9E700B0024029
:100FD00001000200020002FF30B50B4C2568ED074E
:100FE000FCD4232512041B06A56043F4003302251C
:100FF00042F0010265636264E063E160E361034B18
:1010000065626061236030BD00B0024001000200F3
:10101000012070470C2070470C2303FB01000830AF
:1010200070470C2303FB0100083070470120704714
:1010300040F6A470704740F6A47303FB010008302B
:10104000704740F6A47303FB01000830704701208D
:1010500070471020704700EB01100830704700EB1C
:10106000011008307047084601F094BD10B5034BDD
:101070000360044607F0BBFB204610BD9C3D020800
:1010800010B50446FFF7F2FF204614211FF082FF3F
:10109000204610BD10B5034B0360044607F0A7FBC4
:1010A000204610BD683D020810B50446FFF7F2FF68
:1010B000204640F6AC711FF06DFF204610BD0000C9
:1010C00010B5034B0360044607F091FB204610BDAA
:1010D000343D020810B50446FFF7F2FF2046182100
:1010E0001FF058FF204610BD10B5084B03600446A2
:1010F00000F6D870FFF7BAFF04F12C00FFF7CAFF23
:1011000004F11400FFF7DCFF204610BDD03D0208BB
:1011100008B50248FFF7E8FF08BD00BF9C12002099
:1011200010B50446FFF7E0FF204641F24C111FF0D6
:1011300031FF204610BD0000F7B501F0A3FB0546C6
:1011400001F0A4FB002401460094234622462846D1
:1011500010F06EFE284B294A1A60204602F010F863
:10116000274B284A28489A6010F0CAFD274C23686C
:10117000BFF35B8FDB0738D420461FF00DFF00283C
:1011800033D0234A234B136002F12C0702F57F650D
:1011900002F6D87602F1140097605060D6601561AF
:1011A00007F026FBA5F57F6238461B4B53612C3FA9
:1011B00007F01EFB194BFB62304607F019FB184B7A
:1011C000C7F8D83F07F6EC7002F03EFC3A4607F647
:1011D000EC71284602F02EFC284601F0DBFC114899
:1011E00020F03EFF20461FF0E3FE0F4803B0BDE8AD
:1011F000F040FFF7E7BB00BF603501204804002046
:10120000680400204C0400200800002098120020F0
:101210009C120020D03D0208343D0208683D0208BF
:101220009C3D020811110008C40300207047000013
:101230000148FFF7D5BB00BFC403002070B5264EA0
:10124000264C274D274B23603046FFF753FE284698
:1012500015F0F4FE24480EF005FE244B2448DC6013
:1012600000224FF48071C3E9121222491A86C3E9A1
:101270001A12214983F85820C3E91E011F49C3F8F7
:1012800080101F491F480B60F021C3E90422C3E905
:101290000622C3E90822C3E90A22C3E90E22C3E9F0
:1012A0001022C3E91422C3E917225A6683F870207A
:1012B0005A67C3E9016501801348018013484FF460
:1012C000A07101801248018012490A70012283F83E
:1012D0003420114A1A6070BDF404002094120020DA
:1012E00068040020C83002084C040020C403002019
:1012F0000000010101000001000450001A00140068
:10130000FC340120F0340120F6340120F2340120B5
:10131000F8340120F4340120F83B02080148FFF7BB
:1013200077BC00BFF4040020002070478180704724
:10133000C180704701817047418170477047704795
:1013400070477047704710B4C4880368121B8488C4
:101350005B6D091B12B25DF8044B09B218474FF6DA
:10136000FF7383814FF0FF3303621368C361106022
:101370007047002070478B8883800120704770473A
:1013800080F82610704790F82600704710B50022AC
:10139000B1F90840B1F90A10028042808480C1800E
:1013A00010BD0022028042808280C2807047017797
:1013B000704780ED080A704780F82410704780F865
:1013C0002510704701207047983070478C30704767
:1013D000843070477047704770470000034B90227D
:1013E00083F85A2383F85823704700BF00E100E0D8
:1013F000094A0A49D3680A48C3F30A03013B9BB26E
:101400000B801169C1F30A01013901801364536B28
:1014100043F001035363704700680140EA23002052
:10142000E8230020014BD3F8AC007047006801406E
:10143000024B0122C3F8AC105A62704700680140A9
:1014400010B52C2104461FF0A5FD204610BD10B597
:10145000BC2104461FF09EFD204610BD70B5044619
:1014600007F0C5FC23689D6E0DF094FA01462046F6
:10147000A8472368054AD3F88C502046AC46002381
:10148000BDE87040A2F51631604700BF00B004D03F
:1014900007F094BC07F09EBC07F05ABC07F0C9BD2A
:1014A00090F8252012B103685B691847704790F8DF
:1014B00025201AB190F8242002B11860704700006E
:1014C000034B4FF080629A604FF080729A607047D1
:1014D00000E100E0084B4FF08062C3F88820BFF3C2
:1014E0004F8FBFF36F8F4FF08072C3F88820BFF328
:1014F0004F8FBFF36F8F704700E100E070B500239E
:10150000124E8380124B0360336893F858200546CF
:101510000AB1D86C00B998680368DB6A98473368E9
:10152000B0FA80F4D86C640930B10368DB6A98477C
:10153000002808BF44F001042CB9064B064A0748AE
:101540002C2120F06FFD284670BD00BFFC34012027
:10155000E43D02089F340208FD34020836350208D3
:1015600070B5254E3568BFF35B8F15F0010540D18E
:1015700030461FF011FD00283BD0204C204B256148
:1015800004F13400C4E90035C4E90255E584A562DC
:10159000A5850EF04CFF04F158000AF085FC194BAC
:1015A000A3652046184B40F8843BFFF7A7FF174B75
:1015B000C4F884302433C4F88C304FF4C803C4E931
:1015C00028350023C4F8AC30C4F8B030C4F8B430C7
:1015D000C4F8B8300E480F4BC4F89050C4F89C5073
:1015E000C4F8A850C4F8983020F03AFD30461FF0F7
:1015F000DFFC024870BD00BFEC230020F023002078
:1016000014440208043E02087C3E0208C843020853
:10161000D9130008A843020838B5184C23685BB3F7
:10162000174B184A1B6C11888B4216D1164B198820
:1016300003F0E8FD236893F86A200025013283F85F
:101640006A2083F87C50FFF7B7FA206808F04CF95D
:101650002846BDE83840FFF7F7B803F0D3FD24680B
:10166000236820461B6A9847012384F87C300020B9
:10167000BDE83840FFF712B938BD00BFFC34012087
:1016800000680140EA230020E8230020054B186889
:1016900080EA403080EA504080EA40101860C0B2D2
:1016A000704700BFB0240020F8B50246002501278E
:1016B000FFF7ECFF00F00306FFF7E8FF00F003047C
:1016C00004EB860402EB4406338C8BB9FFF7DEFF94
:1016D0003784B2F84030E6288CBF042002208342D1
:1016E00038BF0346013522F81400EDB2A2F84030AD
:1016F0008D42DDD3F8BD000010B50246044600F16E
:101700002001002313801384538053849380938497
:10171000D380D38408328A42F4D1A4F84030A4F8AC
:10172000423084F8443002F0FBFC094A094B02FBCA
:101730000030094B1A68904214BF50404FF0A5305A
:10174000186002212046BDE81040FFF7ADBF00BF82
:10175000B179379EB979379EB02400202DE9F04F3A
:10176000044690F8440085B0002840F0D98104F187
:1017700020030193032900F2C981DFE811F0700012
:101780002E011B0004004FF0000904F12003CE4697
:101790009A4601930833AAF11A0C1E4600214FF015
:1017A000040B374636F8022D012A40F06881604666
:1017B0005A4636E14FF000092346CA46002103F19C
:1017C00020089E460A4638F8120001282DD108EB61
:1017D00042071046754640B337F802BC2E88009683
:1017E000BBF1010F35F8026C00F1FF3C40F0F980CD
:1017F000009DAE4219D1C1B9760023F81C6023F8D0
:10180000101028F8101033F81C00B4F84010814272
:1018100038BF0146A4F8401033F81C00B4F8421059
:101820000144A4F84210D94659460132042A0EF167
:10183000020EC8D10AF1040ABAF1100F03F108032D
:10184000BCD150E04FF000021A854FF001021A841B
:10185000A3F800B01F8142464FF001090EE089460F
:101860000020460004EB400E0D464FF0000CBEF881
:101870002030012B2DD104EBCC027346A24228D09C
:101880009A46B3F800B0BAF818A033F8087DBAF158
:10189000010FA2F10808D5D15F451AD1CDB9019B3E
:1018A0007F0028F8067033449553121BD1469D5291
:1018B00038F80620B4F84030934238BF1346A4F8F5
:1018C000403038F80620B4F842301344A4F84230CF
:1018D00055460CF1010CBCF1040F0EF1080EC6D1F7
:1018E00001300428BDD1B9F1000F03D001212046F9
:1018F000FFF7DAFEA11D04F12603A1F1080232F878
:10190000020FB0F5006F00F00D818A42F7D102F1AD
:1019100008019942F1D104F14601C8E0BEF838301F
:10192000012B3AD1009B0EF1200204EBC305DFB27C
:10193000042F32D092465E1CBAF820A032F808BCC0
:101940000296BAF1010F32F8087B05F1080636D18C
:101950005F4522D1BCF1000F1FD105EB08027F00CB
:1019600025F8087022F808CC019A02EBC30303EBB8
:101970004003894623F808CC35F80820B4F84030F5
:10198000934238BF1346A4F8403035F80820B4F825
:1019900042301344A4F842308C46009B013BAEF128
:1019A000080E0093BAD1013004289CD004234FEADA
:1019B000400804EB400E4FF0000C0093AEE74FF0F0
:1019C000000313824FF00103138322F808BC029B2B
:1019D00022F8107C35468946A9E74FF000094846B1
:1019E000E4E7009825F8020C4FF0000025F80269A2
:1019F00038804FF0010027F8020D4FF001096046D2
:101A0000E9E6009A20F8022F4FF0000220F8028C3D
:101A100027F8022C4FF0010227F8022B039A4FF00F
:101A20000109D5B2042D2AD005880095551C0395CF
:101A30003D88B0F802800295012DE2D10098404522
:101A40001DD1E1B90198009D2038571E6D0020F886
:101A5000125020F817102AF8171030F81250B4F866
:101A60004010A94238BF2946A4F8401030F812208F
:101A7000B4F842100A440299A4F842208946019A17
:101A800096420BF1FF3BACF1020C7FF48AAE0EF1F3
:101A9000040EBEF1100F7FF47BAE24E732F8020F84
:101AA00068B39A42FAD102F108038B4231D0A3F114
:101AB0000802F3E733F8085C188885421FD0032A30
:101AC00003D01D891888854219D031B133F8025CE2
:101AD0001888854213D0032903D05D881888854271
:101AE0000DD00131042903F1020302D0002AE8D00D
:101AF000E0E70132042A0DD1022384F844300A4B76
:101B0000B4F842201988914208D3484605B0BDE890
:101B1000F08F002204EBC2030021E7E71A80F4E70C
:101B20000020F3E70123E8E7AC240020014B1888EC
:101B3000704700BFAC24002007B5064BADF8060087
:101B40001B68054801220DF1060104F0FBF803B003
:101B500000BD00BF0C000020FC2400202DE9F04750
:101B60001A4BDFF874900FCB88B004AC84E80F00F8
:101B7000174B184ACDE902234FF001330193274652
:101B80000DF1080801AE002538F8021B57F8040BC8
:101B900002F020FD021E14BF4FF0010A4FF0000AB0
:101BA0000BD13378012B08D1D9F80000ADF80250E1
:101BB0000A230DF1020104F073FE0135042D06F82D
:101BC00001ABE1D1142004F07DFDD8E770300208AC
:101BD0002000800000200008B824002030B595B017
:101BE000102200210AA820F027FC1422002103A8BB
:101BF00020F022FC00241E4B01941A6C42F080520B
:101C00001A641B6C03F080530193019B194B0294DF
:101C10001A6842F440421A601B6803F4404302937E
:101C20000122029B4FF48033CDE9082302254FF4B3
:101C300080030821CDE90E534FF4B473CDE910139E
:101C400008A804231393129503F034FB03F0F8FA69
:101C50000F23CDE903354FF4A0504FF48053CDE965
:101C60000603052103A8059403F000FD15B030BD5F
:101C7000003802400070004080B59AB002F02AFAA5
:101C8000FFF7ACFF142200210DA820F0D5FB0024A3
:101C9000BF4B00941A6BBF4842F010021A631A6BD4
:101CA00002F010020092009A01941A6B42F0200296
:101CB0001A631A6B02F020020192019A02941A6BC5
:101CC00042F080021A631A6B02F080020292029ABA
:101CD00003941A6B42F004021A631A6B02F00402B6
:101CE0000392039A04941A6B42F001021A631A6B6E
:101CF00002F001020492049A05941A6B42F0020267
:101D00001A631A6B02F002020592059A06941A6B86
:101D100042F040021A631A6B02F040020692069AE1
:101D200007941A6B42F008021A631B6B03F0080356
:101D3000224607933C21079B02F052FC9648012261
:101D4000022102F04DFC22469348042102F048FC97
:101D5000224692484FF4405102F042FC22469048FD
:101D60004FF4C04102F03CFC01253C23CDE90D3588
:101D700088480F9403230DA90226109302F046FB16
:101D800085480DA9CDE90D65CDE90F4402F03EFB74
:101D9000042381480DA9CDE90D35CDE90F4602F0A8
:101DA00035FB80480F940DA9CDE90D5402F02EFBB0
:101DB0004FF4405379480DA9CDE90D35CDE90F46D3
:101DC00002F024FB4FF4C04375480DA9CDE90D3551
:101DD000CDE90F4402F01AFBA02372480DA9CDE90A
:101DE0000D34CDE90F5402F011FB0DA94FF420532F
:101DF00069480D9302F00AFB6B4A6C4B1360104666
:101E000002F0FAF96A4A6B4B13606B4BD460C2E97B
:101E1000013410464FF48043C2E90434C2E9064459
:101E2000146202F0F7FD1021614803F039F82146F1
:101E30005F4803F054F8614A614B13604FF48273BA
:101E40004FF4007EC2E901341823C2E906E31046CC
:101E50000A23C2E90344C2E9084454619462D3628C
:101E600003F014FF8F23224631464B488DF824306F
:101E70008DF8344002F0B4FB2A464FF47A7309A976
:101E80004E4803F05FFF4FF47A732A460DA94B4882
:101E900004F004F92A4631463F4802F0A1FB9DF8C0
:101EA0003430484AD32B04BF474B1D70474B136057
:101EB00040214FF4C0730024C2E905134FF40063BE
:101EC000C2E908344FF40053012602254FF00408FC
:101ED00093624FF0030907234FF0100A0DA9104633
:101EE000CDE90D53CDE90F830827C2E90164C2E9AA
:101EF000038AD461CDE91195139503F0ABFD4FF63C
:101F0000FF7209A92F480894CDE90A7609960C9426
:101F100003F0C0FD304602F009F94FF6FF7209A93F
:101F20002848CDE90957CDE90B6403F0B3FD4FF61E
:101F3000FF7209A92348CDE90997CDE90B8403F085
:101F4000A9FD4FF40C730893089B1E480C934FF6A1
:101F5000FF7209A9CDE909870B9603F09BFD40F2BA
:101F60006A51184803F0B4FD342221460DEB0200FB
:101F700020F062FA164A174B1461C2E900340923B3
:101F8000C2E905361D23C2E9073940F20D1023E0EE
:101F9000003802400010024000080240000C0240DD
:101FA000001802400000024090260020003002404D
:101FB000FC250020005C0040A0860100FC240020DD
:101FC00000500140C8240020BC240020400100A093
:101FD000542500200068014040F24313C2E9090380
:101FE00040F2171740F247131046C2E90B73C2E9DB
:101FF0000244948682F8364003F00CF8FF214FF437
:10200000806CF022CDE912140521CDE914C14FF402
:10201000A0730DA9CDE90E24CDE916422148224F27
:1020200018932246CDE910350D94ADF864408DF833
:10203000664003F0BAF81D4B3B601B6898473B684D
:10204000DB6898471A4A1B4B1046C2E90034C2E9C4
:102050000254C2E90A45C2E90C4402F0DDF83146F7
:10206000134802F08FF9FEF723FBFEF720FB04F084
:10207000B9FA114A2946504604F0D7FB0F4B104AD3
:10208000186021460F4804F0D9FA0F4B0F4A186028
:1020900021460F4804F0D2FA0E4B186004F0B4FA4F
:1020A000FEE700BF54250020B424002014000020C7
:1020B0005026002000B00240C03E0208B824002094
:1020C000FC3E02085D1B0008C4240020D83E020824
:1020D000BF060008C0240020704770477FB5084B3A
:1020E0008DF817201B6802930DF11702012300924F
:1020F00001930A460146034802F034FD07B000BDD3
:1021000010000020FC2500207FB500238DF817303B
:10211000084B1B6802930A4601230DF11701009139
:1021200001930146044802F0ADFD9DF8170007B089
:1021300000BD00BF10000020FC2500201FB5084C8A
:1021400024680092CDE901340A460123014605487E
:1021500002F098FD003818BF012004B010BD00BF88
:1021600010000020FC25002001F0E0BF08B5064863
:102170000022042102F034FABDE80840024801229E
:10218000042102F02DBA00BF0008024010B5012260
:1021900004464FF40051094802F022FA00220421BB
:1021A000074802F01DFA2046FFF7C6FCBDE81040C4
:1021B00003480122042102F013BA00BF000C0240C0
:1021C0000008024010B5002204464FF400510948AF
:1021D00002F006FA00220421074802F001FA204624
:1021E000FFF7AAFCBDE8104003480122042102F0D9
:1021F000F7B900BF000C02400008024037B50546A1
:102200000C4612480022042102F0EAF900224FF4A1
:1022100000510F4802F0E4F92846FFF78DFC0D4B02
:102220000D481B68224601A903F038FF0848019CAD
:1022300001224FF4005102F0D3F904480122042195
:1022400002F0CEF9204603B030BD00BF00080240C6
:10225000000C02400C000020FC24002001F066BFAE
:102260000268034B9A4201D101F04EBF704700BF94
:10227000001000407047000082B00E4B0022009218
:10228000596C41F480415964596C01F480410091CA
:1022900000990192196C41F0805119641B6C03F094
:1022A00080530193019B0F216FF0010002B001F0F8
:1022B00063BF00BF003802400268094B9A4282B0F7
:1022C0000BD100230193074B1A6B42F480521A631F
:1022D0001B6B03F480530193019B02B0704700BF56
:1022E000003002400038024007B50E4B02689A42A7
:1022F00016D10022A3F5F0430192196B41F40001BD
:1023000019631B6B03F40003019305215A20019B01
:1023100001F032FF5A2003B05DF804EB01F05EBF1C
:1023200003B000BD00B002402DE9F043044689B07F
:102330001422002103A820F07FF82268244B9A423F
:1023400043D1244C244800250095236B43F004031B
:102350002363236B03F004030093009B0195236B1D
:1023600043F001032363236B03F001030193019BFB
:102370004FF012094FF400734FF0010803270426B1
:1023800003A9CDE90339CDE90587079602F03EF8A8
:102390004FF480731148079603A9CDE90339CDE9BD
:1023A000058702F033F80295236C43F4000323649D
:1023B000236C03F400030293029B236A43F400039B
:1023C0002362236A23F40003236209B0BDE8F0838B
:1023D000005C00400038024000080240000002405B
:1023E000F0B599B004461422002107A820F024F883
:1023F00030220DEB0200002120F01EF822685E4B17
:102400009A4240F0B78008230C93C0231093042312
:1024100012930CA84FF40033159303F0EFF908B1B1
:10242000FFF728FF554B5648002400945A6C42F0A1
:1024300080625A645A6C02F080620092009A0194A1
:102440001A6B42F020021A631A6B02F0200201920A
:10245000019A02941A6B42F001021A631A6B02F09D
:1024600001020292029A03941A6B42F002021A636A
:102470001A6B02F002020392039A04941A6B42F060
:1024800040021A631A6B02F040020492049A059407
:102490001A6B42F004021A631A6B02F004020592EE
:1024A000059A06941A6B42F008021A631B6B03F03C
:1024B0000803069302250E26069B0B964FF48063B5
:1024C00007A9CDE90735CDE9094501F09FFF41F6A0
:1024D00058032C480B9607A9CDE907350927CDE904
:1024E000094501F093FF032327480B9707A9CDE97E
:1024F0000735CDE9094501F089FF4FF470632248A3
:102500000B9607A9CDE90735CDE9094501F07EFF16
:102510004FF40C631D480B9607A9CDE90735CDE9AB
:10252000094501F073FFC02319480B9607A9CDE9AF
:102530000735CDE9094501F069FF082315480B96D9
:1025400007A9CDE90735CDE9094501F05FFF4FF453
:10255000A0530E480B9707A9CDE90735CDE90945EA
:1025600001F054FF58202246052101F005FE5820B5
:1025700001F034FE19B0F0BD00680140003802409F
:102580000014024000000240000402400018024013
:1025900000080240000C024010B5044688B0142226
:1025A000002103A81FF048FF2268144B9A4223D150
:1025B00003F56843002101915A6C114842F48012DE
:1025C0005A645A6C02F480120192019A02911A6BB9
:1025D00042F020021A631B6B03F020030293029B5C
:1025E0004FF4607202230321CDE903230523CDE9D3
:1025F000061303A901F00AFF08B010BD0050014006
:10260000001402402DE9F04186B0002303932B4BC8
:102610001C68002C4FD14FF00108C3F80080284BF4
:1026200000949A6B274842EA08029A639B6B03EA7C
:1026300008030093022703260C25009B01A94FF6EF
:102640003F03CDE90137CDE9046501F0DFFE1E4807
:10265000059501A9CDE90187CDE9034601F0D6FE34
:1026600048F233131948059501A9CDE90137CDE9A1
:10267000034601F0CBFE4FF683731548059501A97B
:10268000CDE90137CDE9034601F0C0FE4CF20373FA
:102690001048059501A9CDE90137CDE9034601F0C0
:1026A000B5FE60230C48059501A9CDE90137CDE9B8
:1026B000034601F0ABFE06B0BDE8F081982600208D
:1026C0000038024000140240000802400018024096
:1026D00000100240000C02400004024030B589B0F6
:1026E00000230293204B1A6C42F010021A641B6CF8
:1026F00003F010030293054601A903A8029B03F00F
:102700005FF8069B4BBB03F04BF8184A184B13605D
:1027100040F2E733D360174BB0FBF3F3013B536058
:102720001046002313619360936103F087FE044613
:1027300080B90E4803F058FD044658B9362001F020
:102740004DFD0F2D0DD822462946362001F014FDEF
:10275000094B1D60204609B030BD03F021F8400050
:10276000D3E70124F6E700BF003802409C26002092
:102770000010004040420F007C0000207047FEE740
:10278000FEE7FEE7FEE77047014803F06BBD00BFC0
:102790009C260020014802F0ABBC00BF542500205D
:1027A000014801F065BD00BF5026002001207047A0
:1027B00008B51FF0E3FE162303604FF0FF3008BD9D
:1027C00008B51FF0DBFE16230360FEE770B50D466B
:1027D00014460E46731B9C4201DC204670BDAFF3CD
:1027E000008006F8010BF5E770B50D4614460E465D
:1027F000731B9C4201DC204670BD16F8010BAFF341
:102800000080F5E74FF0FF3070474FF400534B6006
:10281000002070470120704700207047094A08B522
:102820000346106808B908481060034469468B42A3
:1028300006D91FF0A3FE0C2303604FF0FF3008BD44
:102840001360FCE7E426002040420120704710B5E9
:10285000042104461EF09EFB204610BD012908B548
:1028600006D0022908D059B900F0D6FC006808BD8E
:1028700000F0D2FC4068FAE700F0CEFC8068F6E792
:102880000020F4E700487047343F020802207047F8
:1028900013B5002451B1036801948DF8034001AAD7
:1028A0009C680DF10303A04702B010BD0846FBE78A
:1028B000C0897047008A7047C08870478088704719
:1028C000807A00F07F007047807AC009704700204E
:1028D000704700009FED010A704700BF0000000034
:1028E000704710B5082104461EF054FB204610BD69
:1028F0007047704700F598730868496803C37047CC
:10290000704770474160704770477047064BC0F88A
:102910004C310023C0F8503100F5A273C0F84801D3
:10292000C0F84031704700BFC92900080123037275
:1029300070477047D0E90232416810B4541001EB7F
:102940006200D20748BF0A595DF8044B48BFD3580C
:1029500018470346406830B19A681AB9D86800F041
:10296000010070470120704710B50C2104461EF08D
:1029700011FB204610BD10B5102104461EF00AFBC5
:10298000204610BD10B54FF4AE7104461EF002FB98
:10299000204610BD10B50BF0FDFF0368BDE81040E8
:1029A000DB6B184710B50446D0F8400158B10368F6
:1029B000DB68984738B1D4F8400103689B689847B2
:1029C0000023C4F8403110BD2DE9F14FD0E9556A1C
:1029D0000746B06803681B6A984740F6A37398429D
:1029E00005D8444B444AA32144481FF01BFB7068A0
:1029F00003681B6A98470F2803D8414B3E4AA4211D
:102A0000F2E7F06803681B6A98470B2803D83D4B30
:102A1000394AA521E8E70BF0BDFFDFF8F09004305C
:102A20000BF0DDFFD9F8000010B10368DB689847B0
:102A3000D9F8000010B103681B689847DFF8D08010
:102A4000D8F8000010B103685B699847D7F83C01DB
:102A500010B103685B689847D8F8000010B10368AC
:102A60001B689847D7F83C0110B103689B689847EA
:102A7000F068036800215B6A98474FF0000B224B17
:102A8000C0F804B0044680F808B00360B06803687A
:102A900059465B6A9847054601F03CF87068036840
:102AA00059465B6A98472946064600F0DFFF331D0A
:102AB000C7F83C61C9F80040C8F80050CAF80030B7
:102AC0002B68C6F808A02846DB68EE639847336891
:102AD00030461B689847214628460EF097F9236830
:102AE00020461B69984723685B69204601B0BDE812
:102AF000F04F1847B7350208453602081737020865
:102B00005E37020801380208E03F02084435012020
:102B100040350120044B1B6893F858200AB1D86C4B
:102B200000B99868704700BFFC340120F8B517461B
:102B300004460E460BF0F0FF124B1C60124B236054
:102B4000124B0025C4E95135114BC4E9535518689F
:102B5000036801219B68C4E94F55C4E9557698473D
:102B6000284600F00DFBFFF7D5FF16F010F9FFF730
:102B7000D1FF16F087F9FFF7CDFF16F08FF9204649
:102B8000F8BD00BF503501208C3F0208743F020899
:102B9000FC340120064BC0F84C310023C0F8503102
:102BA00000F5A273C0F84801C0F84031704700BF7B
:102BB000C9290008406A7047806A704770478A8850
:102BC0000B8810B5D20A4C88C1699BB251F822001B
:102BD00043EA0443184410BD10B50446BAB1107B53
:102BE00068B1537BD27A1B0203F4E0631A43236A71
:102BF00003EB82031A888A4202D193F9020010BDC6
:102C000005D8013880B204330028F3D1F7E700205B
:102C1000F5E710B52C2104461EF0BCF9204610BD86
:102C200030B58BB00446BDF860500895BDF85C50D7
:102C300007959DF8505006959DF84C5005959DF8C8
:102C4000485004959DF8445003959DF840500295D6
:102C50009DF83C500195BDF8385000950DF0A4FC4E
:102C6000064B2360159BE361169B2362199B6362ED
:102C70001A9BA36220460BB030BD00BF044002087F
:102C8000704770477047704770477047704770478C
:102C9000704703681B6B1847D0E9023230B44468B0
:102CA000551004EB6200D20748BF625930BC48BFE0
:102CB000D35818470346406830B19A681AB9D868A3
:102CC00000F0010070470120704710B51021044644
:102CD0001EF060F9204610BD10B5034B036004469A
:102CE0000AF08EF9204610BD8440020810B5064B4C
:102CF000036004460AF084F920464FF473611EF025
:102D000049F9204610BD00BF8440020800F16C0262
:102D10008A4202D10368DB6A1847704770B50368BE
:102D200004461B6B154698472368294620465B6B73
:102D3000BDE87040184770B504461D46BDF91060E7
:102D4000FFF7ECFF2368294620469B6B98472368D2
:102D500031462046DB6BBDE870401847F8B5194B8B
:102D6000018F1B888B4206462AD9174B1B682BB94B
:102D7000164B174A17486C211FF054F913F811200D
:102D8000154B1B6853F82250144B186800F034FAA6
:102D90002B6807469B6B284698472B6804469B6C1C
:102DA0003946284698472B6814FB00F45B6A39467D
:102DB00028469847A4B223181BB2A6F84630F8BD9F
:102DC0000023FAE75835012054350120A4380208C1
:102DD000E6380208213902085C35012060350120FF
:102DE0002DE9F04F044685B00DF064FE494B236099
:102DF0004FF480736366484B2364002504F16C062E
:102E0000FF2384F8663004F1B408C4E91155C4E91D
:102E10001355C4E91555C4E91755E563A566304651
:102E200009F028FA04F1FC09404608F02FFB484657
:102E3000FEF764FB394BC4F8FC302433C4F804318A
:102E4000374BC4F8203F374BC4F8283F4FF4A077E6
:102E500004F5887004F1400BC4F80851C4F8244FFD
:102E6000C4F82C5F4FF461610AF0C0F82A46294685
:102E700058460097F023FFF75EFF04F1040A4FF075
:102E80007F43A3665946504605F0C6FC29463046A6
:102E9000EA22FFF743FF03AA012302A93046ADF857
:102EA0000C30ADF8085009F05CF83046A4F8A45096
:102EB000FFF754FF4FF0FF33C4E92A3304F5726380
:102EC000C4F894303146504605F0A6FC0A2214237B
:102ED000114600934046FFF72EFF4FF43453C4F8D9
:102EE000F030114BC4F808314FF620035046C4E9C6
:102EF0003877C4F8E870C4F8F450C4F8EC50A4F87B
:102F00000C31C4F8DC90414605F086FC204605B043
:102F1000BDE8F08F8440020808460208C843020852
:102F20006C4002080D2D00080505FFFF70470000EA
:102F300030B5164D8FB02C68BFF35B8F14F00104D1
:102F400020D128461EF028F8E0B13F230993104B0A
:102F50000893104B104911480A940122CDE9064309
:102F60000423CDE903320A230093CDE90B44CDE9D4
:102F700001440594FFF754FE09481FF071F82846F4
:102F80001EF016F805480FB030BD00BFE82600203F
:102F9000DC530208E853020820530208EC26002004
:102FA0002D2F00087047000030B5164D8FB02C68EB
:102FB000BFF35B8F14F0010421D128461DF0ECFF14
:102FC000E8B13F230993104B0893104B079301235B
:102FD000CDE9054304930423CDE9024314230C49AE
:102FE00000930B22CDE90B440A480A940194FFF7A1
:102FF00017FE09481FF034F828461DF0D9FF054890
:103000000FB030BD18270020E0530208EC5302082F
:10301000305302081C270020A52F0008704700002D
:1030200030B5164D8FB02C68BFF35B8F14F00104E0
:1030300020D128461DF0B0FFE0B13F230993104B8B
:103040000893104B104911480A940122CDE9064318
:103050000423CDE9033228230093CDE90B44CDE9C5
:1030600001440594FFF7DCFD09481EF0F9FF2846EE
:103070001DF09EFF05480FB030BD00BF482700205F
:10308000E4530208F0530208CC5302084C270020F6
:103090001D30000800207047002070470EB403B5B3
:1030A00003AB002153F8042B01930CF0FBFC02B09E
:1030B0005DF804EB03B070470CB407B504AB53F8EC
:1030C000042B01930CF0EEFC03B05DF804EB02B0AE
:1030D00070470000436C10B5044673B3038F2BB9DF
:1030E000184B194AC52119481EF09CFFC38E00EBEE
:1030F00043035B8C0BB30EF0C8FB238F012B03D86B
:10310000134B144ACB21EEE7E28E531C9BB2092BE2
:10311000194688BFA3F10A0104EB410140F63F10B4
:10312000498C814209D10A2B04EB420228BF0023BB
:1031300004EB4303508C588451842046BDE8104072
:103140000EF0A6BA68390208713902081C3A020862
:10315000663A0208743A02080EF061BA10B586B0F9
:1031600002AC84E806001A460AAB05930193099B5A
:1031700000932146089B0AF0ABFF06B010BD00008B
:1031800038B518BB124B13481C681349B4B12268F8
:1031900022440260626822440A60A26814440F4B11
:1031A00000221A8000F038F8054600F033F80C4B86
:1031B0001C600C4B1D600C4B188007E00B4B036030
:1031C0000B4B0B600B4B1C68002CE8D138BD00BFCB
:1031D000842700207C2700207827002080270020DB
:1031E000543501205C35012058350120F853020880
:1031F000F453020810540208044B1B6853F82100D2
:10320000034B1B6803EB4000704700BF782700208A
:103210007C27002001207047004870478827002045
:1032200010B5FFF7C1FE044C2060FFF7F9FE6060A7
:10323000FFF77EFEA06010BD8827002010B5002497
:1032400004600C6014601C6010BD704710B5002253
:10325000B1F90840B1F90A10028042808480C1802F
:1032600010BD10B52C2104461DF094FE204610BD63
:10327000F7B520B930230B70487003B0F0BD6A4633
:1032800000236F460A25B0FBF5F605FB1604303423
:1032900002F8014B0446092C03F10103B0B201D935
:1032A000052BF0D1481E1A46013ABC5C00F8014FCC
:1032B000002AF9D1CA54E0E74028024632D014D897
:1032C00008280AD808282BD8DFE800F02E2A052A7B
:1032D000262A2A2A280019487047102826D0184B79
:1032E0001848202A18BF18467047B0F5007F1FD035
:1032F00008D880281ED0124B1348B2F5807F18BF23
:1033000018467047B0F5806F16D00D4B0F48B2F5D8
:10331000006F18BF184670470D4870470D4870473A
:10332000074870470C4870470C4870470C48704776
:103330000C4870470C4870470C487047DAE4EEFFC1
:10334000323A3CFF5F7CF6FF61CCEDFF2EC2EDFF11
:10335000C8E0EDFF79B1F2FF3B5EF6FFB4C1CDFFEF
:103360006395F5FF50C8EDFF72CFEDFF3FC5EDFF50
:103370000228024605D0044B0448042A08BF184618
:1033800070470148704700BF656E77FFF2F6F9FF9E
:1033900000224FF48071C0E90322C0E90522C0E990
:1033A00007224260416282620249034A01608260F0
:1033B000704700BFC0400208F0004001F7B5B1F906
:1033C00000E08E88764436B2B24245DABDF920502C
:1033D00015442DB2AE453FDAB1F902C0CC88644441
:1033E00024B2A34238DABDF92410194409B28C453D
:1033F00032DA7245B8BF72466345B8BF6346AE4223
:10340000D4BFC2EB060CC2EB050C0FFA8CF68C4253
:10341000D4BFC3EB0405C3EB010529B2002EADF800
:103420000460ADF80610ADF80020ADF8023013DDF1
:10343000002911DD03686946DB6A9847074B1B6862
:1034400093F858200AB1D86C00B9986803680A9AB2
:103450001C6A6946FF23A04703B0F0BDFC3401207D
:103460002DE9F04F89B0204C9DF84850BDF94C90A3
:1034700000274FF0060C0CFB07F614F806E0AE45EB
:103480002DD10136264494B2321D06F1FF381FFAC1
:1034900089FA04929DB218F801BF22B22E46002785
:1034A0004BFA07F3DB070DD5149BCDF80090CDE95F
:1034B000019333B2CDE906120590FFF77FFFDDE9F6
:1034C0000612059801375644072FB6B2E8D1049B7F
:1034D00054444345A4B2DED109B0BDE8F08F0137B2
:1034E0001E2FC8D1014ECEE720410208214102081B
:1034F00030B5002423B22246C55C0134002DF9D139
:103500003BB189B212FB01F303EB4303C1EB43016F
:103510008BB218B230BD2DE9F04F87B08046BDF9AF
:103520004460DDF840A0DDF848B006EB46056D00CC
:1035300089461446ADB200273AB201371AF8022084
:1035400032B93146504607B0BDE8F04FFFF7D0BF63
:103550000092CDE9016B2246494640462C44059332
:1035600024B2FFF77DFF059BE6E700002DE9F04F51
:103570008BB0CDE905239DF85050BDF95480BDF9BD
:1035800058902B4A0023062606FB03F4175DAF4232
:1035900049D1013414440526002515FB08F393FB9B
:1035A000F9F292B2434493FBF9F39B1A1BB2012B3D
:1035B000B8BF01230493059B14F805B000271A44F3
:1035C000BA4612B24BFA0AF3DB071DD597FBF9FE98
:1035D000069B079013FA8EFC179B029308EB0703D8
:1035E00093FBF9F3A3EB0E031BB2012BB8BF01232E
:1035F0000193049B00930FFA8CF3CDE90812FFF7B7
:10360000DDFEDDE9081207980AF1010ABAF1070F99
:103610004744D7D1013E0135B6B22DB2002EBCD100
:103620000BB0BDE8F08F01331E2BADD1014CB2E7DA
:10363000204102082141020830B5002423B20134A0
:10364000C55C002DFAD163B101EB4100013B4000A4
:1036500001EB810190FBF2F091FBF2F210FB0323EE
:103660009BB218B230BD2DE9F04F87B08146BDF94D
:103670004460DDF840A0DDF84CB0BDF9487006EBC1
:10368000460514464FF000086D0095FBF7F50FFA5C
:1036900088F208F101081AF802203AB93A46314690
:1036A000504607B0BDE8F04FFFF7C6BFCDE9002692
:1036B000CDE9027B224648462C440593049124B26E
:1036C000FFF754FFDDE90413E1E700002DE9F04FB7
:1036D000C24EC34F8BB04FF4A073CDE90136F02337
:1036E000C04E009300231A4604460D46FFF766FEBF
:1036F00006213046FFF7FCFEC0F1F002062302EB84
:10370000D272CDE9006302970A2342F34F022946A1
:103710002046FFF700FFA36A002B5BD00DF12009C4
:1037200003264FF00208B3F84200DFF8D8A2DFF812
:10373000CCB24946FFF79CFD3A23CDF800A00B22FE
:103740002946CDE9016803972046FFF78CFF4246E2
:1037500031465046FFF770FF00F111023A2312B2D2
:103760002946CDE90287CDE900962046FFF77BFF89
:10377000FEF7DCF94946FFF77BFD424631465846E5
:10378000FFF75AFF4246824631464846FFF754FF4C
:103790000AEB0002C2F1DF023A231FFA82FA29463D
:1037A00012B2CDE90287CDE900B62046FFF75BFFF4
:1037B000424631465846FFF73FFF06300AEB00020B
:1037C000CDE90287CDE900963A2312B22946204678
:1037D000FFF749FF8449E623CDE901310093052233
:1037E0004C2329462046FFF7E9FD4FF052094FF0E0
:1037F000000B0FFA89F304934FEA8B034FF00B0889
:103800004FF0000A0593A66A0FFA88F11EB1059BD6
:10381000534436F813603046FFF74EFD3223CDE9AE
:10382000003302900A46049B29462046FFF7C6FD56
:10383000002E32D008A93046FFF71AFD062108A84D
:103840000691FFF755FE2E28069905DD01398BB24A
:1038500009B2002BF3D1012108A80791FFF748FE18
:1038600006903046FFF784FD0799069AC1EBC10325
:103870009BB2C2F13202C3F1320302EBD272CDE944
:10388000011009EB630308A908EB620200911BB267
:1038900012B229462046FFF73EFE0AF1010A08F15E
:1038A0003808BAF1040F1FFA88F8ACD10BF1010BFC
:1038B00009F13809BBF1040F1FFA89F999D1A36AFC
:1038C000002B00F0878093F84430002B00F08280BA
:1038D000464A474E0297012B08BF1646CC23942236
:1038E000CDE900322946562312222046FFF766FD15
:1038F000A36A404F93F844203F4BDFF80C81DFF878
:103900000491012A08BF1F4603213846FFF7F0FD46
:10391000C0F1F002032302EBD272CDE9007342F34F
:103920004F020296662329462046FFF7F4FDA36A5C
:1039300008AF0226B3F842003946FFF799FC8E2300
:1039400022222946CDF808800196CDF80090204625
:10395000FFF7E1FD31464846FFF7CAFD00F12E02B0
:103960008E2312B229460097CDE901682046FFF761
:10397000D2FDFEF7DBF83946FFF77AFC1F4B0093C8
:103980002222A6232946CDE901682046FFF7C3FD80
:1039900031464846FFF7ACFD009700F12E02184F64
:1039A000A62312B22946CDE901682046FFF7B3FDF0
:1039B00031463846FFF79CFDC0F1F00202EBD272AF
:1039C000CDE901680097CA2342F34F0229462046F9
:1039D000FFF7A1FD0BB0BDE8F08F00BFEFF8FAFFD5
:1039E000656E77FF553B0208A0ADBBFF2EC2EDFF11
:1039F0005F7CF6FF4B3B0208463B0208603B020837
:103A0000653B02085A3B0208F2F6F9FF704710B511
:103A10004FF4AE7104461DF0BDFA204610BD10B53E
:103A20000446D0F8580100F012F82046BDE81040D6
:103A30000BF032B810B50446FFF778F8014B23605D
:103A4000204610BDDC41020800220260704770472A
:103A5000704704387047704710B5102104461DF0B8
:103A600099FA204610BDA0F10400F5E7002282601B
:103A7000024A026018324260C16070473042020858
:103A80007047000037B5174D0446286802F069FFFB
:103A9000B0B14FF6FF73ADF80630002328681A4620
:103AA0000DF1060102F02DFF50B994F8743F4BB1AF
:103AB00004F57360FDF720FE04F678700CF01CF935
:103AC00003B030BDBDF806100329F9D8C9B204F51A
:103AD0007360FDF743FE0028EED194F8743F002B8D
:103AE000EED0E9E7B824002010B5034B036004468C
:103AF000FFF7F2F8204610BD5842020810B5044600
:103B0000FFF7F2FF204640F6A4711DF043FA20466D
:103B100010BD000010B50446FFF762F9034B2360A7
:103B200004F67870FFF734FC204610BD58420208B6
:103B300070B50446251DFFF7ABF804F16C0128466B
:103B400004F0ABFE04F5736604F1B401284604F0FA
:103B5000A4FE3046FDF7D0FDC4F8A06F002304F6A4
:103B600078762846C4F87C3F314604F055FE30464E
:103B7000BDE870400CF0C0B8F02070474FF4A07062
:103B800070472920FEF71EBB2820FEF71BBB08B597
:103B9000FEF7ECFACA20FEF715FBC320FEF7F6FA93
:103BA0000820FEF7F3FA5020FEF7F0FACF20FEF7D8
:103BB00009FB0020FEF7EAFAC120FEF7E7FA302001
:103BC000FEF7E4FAED20FEF7FDFA6420FEF7DEFAD8
:103BD0000320FEF7DBFA1220FEF7D8FA8120FEF769
:103BE000D5FAE820FEF7EEFA8520FEF7CFFA00209E
:103BF000FEF7CCFA7820FEF7C9FACB20FEF7E2FAFE
:103C00003920FEF7C3FA2C20FEF7C0FA0020FEF799
:103C1000BDFA3420FEF7BAFA0220FEF7B7FAF72011
:103C2000FEF7D0FA2020FEF7B1FAEA20FEF7CAFA32
:103C30000020FEF7ABFA0020FEF7A8FAB120FEF74D
:103C4000C1FA0020FEF7A2FA1B20FEF79FFAB62069
:103C5000FEF7B8FA0A20FEF799FAA220FEF796FAC4
:103C6000C020FEF7AFFA1020FEF790FAC120FEF751
:103C7000A9FA1020FEF78AFAC520FEF7A3FA45201C
:103C8000FEF784FA1520FEF781FAC720FEF79AFAAC
:103C90009020FEF77BFA3620FEF794FAC820FEF754
:103CA00075FAF220FEF78EFA0020FEF76FFAB020C8
:103CB000FEF788FAC220FEF769FAB620FEF782FA0C
:103CC0000A20FEF763FAA720FEF760FA2720FEF726
:103CD0005DFA0420FEF75AFA2A20FEF773FA002054
:103CE000FEF754FA0020FEF751FA0020FEF74EFAD4
:103CF000EF20FEF74BFA2B20FEF764FA0020FEF7C8
:103D000045FA0020FEF742FA0120FEF73FFA3F2075
:103D1000FEF73CFAF620FEF755FA0120FEF736FAD8
:103D20000020FEF733FA0620FEF730FA2C20FEF7CB
:103D300049FAC820FEF792FA2620FEF743FA01203E
:103D4000FEF724FAE020FEF73DFA0F20FEF71EFAF8
:103D50002920FEF71BFA2420FEF718FA0C20FEF7A4
:103D600015FA0E20FEF712FA0920FEF70FFA4E2080
:103D7000FEF70CFA7820FEF709FA3C20FEF706FA67
:103D80000920FEF703FA1320FEF700FA0520FEF7DC
:103D9000FDF91720FEF7FAF91120FEF7F7F90020D8
:103DA000FEF7F4F9E120FEF70DFA0020FEF7EEF938
:103DB0001620FEF7EBF91B20FEF7E8F90420FEF7CA
:103DC000E5F91120FEF7E2F90720FEF7DFF93120CF
:103DD000FEF7DCF93320FEF7D9F94220FEF7D6F9D9
:103DE0000520FEF7D3F90C20FEF7D0F90A20FEF7E4
:103DF000CDF92820FEF7CAF92F20FEF7C7F90F20CA
:103E0000FEF7C4F91120FEF7DDF9C820FEF726FA07
:103E10002920FEF7D7F9BDE808402C20FEF7D2B9DB
:103E200008B5FEF7A3F90321D320FEF7E7F980B226
:103E300008BD10B5C4B2022203212046FEF74EF998
:103E40000A20FEF791F9204600220321FEF746F9E9
:103E5000BDE810400220FEF787B938B50446E4B249
:103E6000FEF73AF900212046FEF74EF901210546FA
:103E70002046FEF749F940EA052080B238BD10B56A
:103E8000C4B240212046FEF73FF9030607D54C2176
:103E90002046FEF739F9003818BF012010BD012275
:103EA0004B212046FEF71AF9204600224B21FEF74F
:103EB00015F90020F2E773B50423C4B20E46154687
:103EC000D7210DEB03022046FEF738F9019B1BBA00
:103ED0001A0DC3F30B23328020462B8001224B2185
:103EE000FEF7FCF800224B212046FEF7F7F802B05F
:103EF00070BD000010B50A4A1378984204460DD0F0
:103F0000517888420AD00BB141B90123D454FEF74D
:103F1000E3F82046BDE81040FFF78BBF10BD00BF9F
:103F20009427002010B5C4B209212046FEF7ECF812
:103F300040F00102D2B220460921BDE81040FEF750
:103F4000CDB810B5C4B209212046FEF7DDF809212D
:103F500000F0FE022046BDE81040FEF7BFB838B5BD
:103F6000C4B20D4620460A21FEF7CEF840EA05020B
:103F7000D2B220460A21BDE83840FEF7AFB810B5EE
:103F80000446FEF7AAF820461F21FFF7E8FF204667
:103F9000BDE81040FFF7C6BF38B5C4B20D46204695
:103FA0000A21FEF7B1F820EA0502D2B220460A2122
:103FB000BDE83840FEF792B810B50446FFF7C1FFE0
:103FC00020461F21BDE81040FFF7E6BF10B5C0B284
:103FD0000C460B21FEF798F8204010BD1F21FFF77B
:103FE000F5BF0A46C0B20B21FEF778B81F21FFF7D4
:103FF000F8BF38B5C4B20D4620461721FEF784F845
:1040000020EA0502D2B220461721BDE83840FEF76B
:1040100065B870B5C4B2064604212046FEF774F8B0
:10402000042100F0FB0205462046FEF757F8304613
:10403000F021FFF7DEFF05F0F80220460421FEF72D
:104040004DF8492220212046FEF748F80220FEF7CD
:104050008BF8204601222121FEF740F820469A22C3
:104060004121FEF73BF8204601224A21FEF736F8AF
:10407000204601224B21FEF731F8204600224B2139
:10408000FEF72CF8204601225621FEF727F820469D
:1040900001225821FEF722F8204601224021FEF796
:1040A0001DF82046FF220B21FEF718F8BDE87040EE
:1040B0000220FEF759B80000054BD3F8882042F4DF
:1040C0007002C3F888204FF000629A60704700BF0A
:1040D00000ED00E008B50B4B1A6842F400721A605C
:1040E0001A6842F480621A601A6842F480721A6098
:1040F000032000F02FF80020FEF7F0FAFEF7BCF8DE
:10410000002008BD003C0240034A044B11681B78A4
:104110000B441360704700BF9827002078000020F0
:10412000014B1868704700BF9827002038B5044637
:10413000FFF7F6FF631C1CBF054B1B78054618BF35
:10414000E418FFF7EDFF431BA342FAD338BD00BFCD
:10415000780000200749CA6822F4E06203021204D2
:1041600003F4E063120C134343F0BF6343F40033E2
:10417000CB60704700ED00E0164B30B5DC68C4F34F
:104180000224C4F10703251D042B28BF0423062D98
:104190004FF0FF358CBF033C002405FA03F321EAFE
:1041A0000303A54022EA0502A340002843EA0203D4
:1041B000ACBF00F16040084A4FEA0313B8BF00F0FB
:1041C0000F00DBB2AABF00F56140135480F8003342
:1041D00030BD00BF00ED00E014ED00E0002807DB7B
:1041E000044A4109012300F01F00834042F82130B6
:1041F000704700BF00E100E010B5044650B14379BC
:1042000003F0FF0213B90271FEF756F80123637140
:10421000002010BD0120FCE710B5044620B390F843
:10422000393003F0FF021BB980F83820FEF75CF844
:10423000022384F83930236861681A6822F4403216
:104240000A431A605A6BA16822F007020A435A63B4
:104250001A6CE1686FF30D020A431A64002001230F
:10426000E06384F8393010BD0120FCE770477047E7
:10427000036870B55E681D68F207044614D5E90549
:1042800012D51A6822F480721A60C26B42F00102E1
:10429000C26301229A60042380F83930002380F839
:1042A0003830436903B19847B20616D5AB0414D52C
:1042B00023681A6822F400521A6020229A60E36B85
:1042C00043F00203E363042384F83930002384F8C5
:1042D000383063690BB120469847300716D5290559
:1042E00014D523681A6822F400621A6008229A60C2
:1042F000E36B43F00403E363042384F839300023C1
:1043000084F8383063690BB12046984772070BD5A3
:104310006B0509D523681A6822F480621A600422AA
:104320009A602046FFF7A2FFB00714D5A90512D561
:1043300023681A6822F400721A6002229A60E36B02
:10434000E363012384F83930002384F8383023698B
:104350000BB120469847F20613D5EB0411D523681C
:104360001A6822F480521A6010229A60E36BE363A9
:10437000012384F83930002384F838302046FFF7D1
:1043800076FF70BDF0B590F83820012A03464FF053
:1043900002002BD0012283F8382083F8390003EB88
:1043A0000112D2E90740556A174E44EA0040093C21
:1043B000012C9CBF05F07F4210434FEA01171A6899
:1043C00088BF40EA056091B9516A314001435162AA
:1043D000012C9969916103D8596A21F07F4191625A
:1043E0000122002083F8392083F83800F0BDD1691C
:1043F00031400143D161D919012C896911619CBFF8
:1044000025F07F451562EBE7F0FFFC002DE9F74F43
:10441000DFF8BC916C4A00230D6801249C4004EA3B
:104420000506AC4340F0B7804D68032705F0030450
:104430004FEA430807FA08FC671E012F6FEA0C0CCD
:1044400034D8876807EA0C0ECF6807FA08F747EAFE
:104450000E078760476827EA060EC5F300179F40DE
:1044600047EA0E074760C76807EA0C0E8F6807FA2D
:1044700008F747EA0E07022CC76019D14FEAD30AA2
:1044800000EB8A0A03F0070BDAF820704FEA8B0B77
:104490004FF00F0E0EFA0BFE27EA0E0E0F6907FA09
:1044A0000BF747EA0E07CAF8207001E0032CDAD1B7
:1044B000076804FA08F407EA0C073C4315F4403F88
:1044C000046068D000240194D9F8444044F4804446
:1044D000C9F84440D9F8444023F0030707F1804766
:1044E00004F4804407F59C37019403F0030C019C0D
:1044F000D7F808E04FEA8C0C0F2404FA0CF42EEAEB
:10450000040E324CA0424DD004F58064A0424BD042
:1045100004F58064A04249D004F58064A04247D0ED
:1045200004F58064A04245D004F58064A04243D0E5
:1045300004F58064A04241D004F58064A0423FD0DD
:1045400004F58064A0423DD004F58064A04214BF0D
:104550000A24092404FA0CF444EA0E04BC609468AA
:10456000F74315F4801F0CBF3C4034439460D4687B
:1045700015F4001F0CBF3C403443D460546815F45C
:10458000003F0CBF3C40344354601468ED0354BFFB
:104590003C40344314600133102B7FF43DAF03B033
:1045A000BDE8F08F0024D5E70124D3E70224D1E74A
:1045B0000324CFE70424CDE70524CBE70624C9E78D
:1045C0000724C7E70824C5E7003C0140000002407B
:1045D0000038024000690840003818BF01207047C9
:1045E0000AB1816170470904FBE7436901EA0302EC
:1045F00021EA030141EA02418161704701684B6988
:1046000013F480634FF0000210D06FF480634B61AD
:104610002023026380F83D3080F83E20036C80F850
:104620003C2043F0040303640120704718467047A0
:104630002DE9F84606460F4691461D464FEA114AB7
:104640003368BAF1010F39D15C6927EA0404A4B2D6
:10465000B4FA84F46409A14501D0002024E06A1C66
:10466000EFD0FFF75DFD089BC01AA84201D8002DCE
:10467000E6D1BAF1010F336818D15B6927EA030369
:104680009BB2B3FA83F35B099945D9D10023202269
:10469000336386F83D2086F83E30326C86F83C3035
:1046A00042F0200232640120BDE8F8869B69DB43BA
:1046B000C3F3400383F00103DBB2E5E79C69E44305
:1046C000C4F3400484F00104E4B2C4E72DE9F041EE
:1046D00004460F46164698462568686927EA000092
:1046E00080B2C0B16B695A0517D52B6843F40073CB
:1046F0002B606FF480636B6120220023236384F8B6
:104700003D2084F83E30236C43F0040323640023EF
:1047100084F83C300120BDE8F081731CDDD0FFF748
:10472000FFFCA0EB0800B04201D8002ED4D12368D2
:104730005A6927EA020292B2002ACDD00023202231
:10474000236384F83D2084F83E30236C1343DDE777
:1047500070B504460D46164623685B691B0601D5F5
:1047600000201EE02046FFF749FFC8B96A1CF3D0BD
:10477000FFF7D6FC801BA84201D8002DECD123689E
:104780005B6913F08003E7D12022236384F83D2086
:1047900084F83E30226C84F83C3042F020022264DF
:1047A000012070BD2DE9F0431546026885B0DDE9B2
:1047B0000C789946136843F4807313600E463B46A9
:1047C000CDF8008000224FF001110446FFF730FFC2
:1047D000236838B11B68DB0502D54FF400732364EE
:1047E000032620E006F0FE061E611A4943463A46BB
:1047F0002046FFF76BFFA8B9236803905A6903921C
:104800009B690393424639462046039BFFF7A0FF6E
:10481000064660B1236C042B01BF2268136843F481
:10482000007313600126304605B0BDE8F083B9F18E
:10483000010F236802D1EDB21D61F4E72A0A1A6163
:10484000394642462046FFF783FF0028E2D123681D
:10485000F1E700BF020001002DE9FF479A46036817
:1048600015461A6842F480621A601A68DDE90C780D
:1048700042F480721A600E463B46CDF8008000225A
:104880004FF001110446FFF7D3FE236838B11B68CF
:10489000DB0544BF4FF400732364032021E05FFA7B
:1048A00086F906F0FE061E612A4943463A4620462E
:1048B000FFF70CFFA0B9236803905A6903929B6924
:1048C0000393424639462046039BFFF741FF58B108
:1048D000236C042B01BF2268136843F40073136038
:1048E000012004B0BDE8F087BAF1010F23681AD1A6
:1048F000EDB242461D6139462046FFF729FF0246C8
:104900000028E5D121680B6843F480730B602046D2
:10491000CDF800803B464FF00111FFF789FE226879
:1049200060B11368B4E72A0A1A6139464246204644
:10493000FFF70EFF0028CBD12368D9E749F0010328
:1049400004491361204643463A4604B0BDE8F047A7
:10495000FFF7BCBE0200010070B504460D461646C6
:1049600023685B695B0701D500201EE02046FFF746
:1049700045FEC8B96A1CF3D0FFF7D2FB801BA842E2
:1049800001D8002DECD123685B6913F00403E7D153
:104990002022236384F83D2084F83E30226C84F882
:1049A0003C3042F020022264012070BD70B5044604
:1049B0000D46164621684B6913F0400301D00020D4
:1049C00011E04A69D2060FD56FF010024A61202229
:1049D000236384F83D2084F83E30236C2364002355
:1049E00084F83C30012070BDFFF79AFB801BA84281
:1049F00001D8002DDED123685B6913F04003D9D1C3
:104A00002022236384F83D2084F83E30236C134336
:104A1000E4E7000070B5044608B9012070BD90F8C5
:104A20003D3003F0FF021BB980F83C20FDF77CFC11
:104A3000242384F83D3023681A6822F001021A60AA
:104A40001A6842F400421A601A6822F400421A609E
:104A500000F0A6FE3F4B65689D4294BF3E4B3F4B26
:104A600098428CBF00230123002BD6D12268394EF7
:104A700051683B4BB0FBF3F321F03F011943B542C2
:104A8000516088BF4FF49676116A88BF734321F056
:104A90003F0184BF4FF47A76B3FBF6F301330B4347
:104AA0001362D169431E2B4821F44F41854221F006
:104AB000FF0132D86D0040F6FC70B3FBF5F3013313
:104AC000034242D0C3F30B031943D161D4E9073049
:104AD0001168034321F0C0010B4313609168D4E9CE
:104AE000030321F40341034321F0FF010B439360CF
:104AF000D4E90530D168034321F0FF010B43D360B3
:104B0000136843F00103136000202023206484F81D
:104B10003D30206384F83E0080E7A06850B905EB83
:104B20004505B3FBF5F30133C3F30B037BB143F44A
:104B30000043C9E719206843B3FBF0F30133C3F323
:104B40000B0323B143F44043BEE70423BCE7012336
:104B5000BAE700BFA08601007F841E00FF083D0069
:104B600040420F002DE9F743044699460C9E0F463C
:104B70009046FFF7D5FA94F83D30202B054603D038
:104B8000022003B0BDE8F08300903C4919230122C4
:104B90002046FFF74DFD0028F2D194F83C30012B60
:104BA000EED02068012384F83C300368D9075EBF4B
:104BB000036843F001030360036823F400630360A8
:104BC000212384F83D30402384F83E3000232364C1
:104BD0000A9B6362BDF82C306385638D2385284B67
:104BE000E3624246CDE900654B4639462046FFF771
:104BF000D9FD00282AD00120C3E7FFF7A9FD40B165
:104C0000236C042B01BF2268136843F40073136004
:104C1000F1E7636A27681A4612F8011B396162627C
:104C2000628D218D013A92B262857A69481E80B206
:104C3000520720850AD548B15A783A610233636237
:104C4000638D013B02399BB221856385238D2A4602
:104C500031462046002BD0D1FFF77EFE0028CFD171
:104C60002268136843F400731360202384F83D30F6
:104C700084F83C0084F83E0083E700BF0200100087
:104C80000000FFFF2DE9F043044687B09946109FCE
:104C90000D469046FFF744FA94F83D30202B064627
:104CA00004D00225284607B0BDE8F083009079497A
:104CB000192301222046FFF7BBFC0028F1D194F80C
:104CC0003C30012BEDD02068012384F83C30036890
:104CD000DB075EBF036843F001030360036823F44E
:104CE00000630360222384F83D30402384F83E3083
:104CF000002323640E9B6362BDF83C306385638DA3
:104D00002385654BE3622946CDE900764B46424652
:104D10002046FFF7A1FD054608B10125C2E7228D17
:104D20002368A2B902905A6902929A690292029A81
:104D30001A6842F400721A60238D002B2CD12022B5
:104D400084F83D2084F83C3084F83E30AAE7012AFC
:104D50000AD11A6822F480621A6003905A69039299
:104D60009A690392039AE3E7022A0ED11A6822F4A1
:104D700080621A601A6842F400621A6004905A69EC
:104D800004929B690493049BD6E705905A690592A7
:104D90009B690593059BCFE7032B56D8012B15D1B3
:104DA000324639462046FFF701FE0028B5D1236878
:104DB0001A69636A1A70636A01336362238D013B67
:104DC0002385638D013B9BB26385B5E7022B334995
:104DD00000963B464FF00002204619D1FFF728FC11
:104DE00000289AD123681A6842F400721A601A697E
:104DF000636A1A70626A531C6362238D013B2385C8
:104E0000638D013B9BB2638523681B695370D2E7B6
:104E1000FFF70EFC024600287FF47FAF2368196875
:104E200021F4806119601969636A1970636A1B490A
:104E300001336362238D013B2385638D013B9BB26C
:104E40006385204600963B46C8E7324639462046F1
:104E5000FFF7ACFD00287FF460AF23681A69636A2E
:104E60001A70628D616A013A92B24B1C62852268A7
:104E70006362238D5069013B9BB2400723857FF518
:104E80005BAF032B02BF136823F4806313601369C5
:104E90004B7090E7020010000000FFFF04000100CB
:104EA00010B590F83D30202BDCB216D1242380F8C9
:104EB0003D3003681A6822F001021A605A6A22F033
:104EC00010025A625A6A114359621A6842F001028A
:104ED0001A6080F83D40002010BD0220FCE730B58C
:104EE00090F83D30202BDCB216D10268242380F8E4
:104EF0003D30136823F001031360556A4FF6F073D9
:104F00002B400B439BB25362136843F001031360C1
:104F100080F83D40002030BD0220FCE70068D1F859
:104F200000C0D201843283182DE9F043C6685D6861
:104F30004C68D1F8189005F470455D60C5680CF1B7
:104F40000107C5F30B45C6F30B4626443D4445EA2D
:104F500006455D60C668CD68C6F30A062E449D68A6
:104F600005F470459D60C7688D68C7F30A07013571
:104F70003D4445EA06459D601D690E6925F007051B
:104F80001D614FF0000E1E6191F832709D6991F81D
:104F90003180C3F818E091F8305045EA096545EAD8
:104FA000082545EA07459D615D6925F0FF055D61BE
:104FB0004D695D61DD6925F4E06525F00705DD617A
:104FC000D1E907573D43DD619D6A4D6AC3F828E08A
:104FD000072E9D629CBF0E4DAE5DDD6A05F0E0259B
:104FE000DD6288BF01268D6AC96AA4EB0C04744394
:104FF0007543033444EA0544DC621C6B6FF30A0416
:105000001C631963835843F001038350BDE8F083A8
:10501000A442020838B50446002863D090F8A130B5
:1050200003F0FF021BB980F8A020FDF7D9F9022395
:1050300084F8A13023689A6922F070429A61D4E919
:1050400001200243E06899690243206902430A4350
:105050009A619A68244960690A409A609A6842EAAB
:105060000042A06902439A60DA68E0690A40DA60A7
:10507000DA6842EA0042206A0243DA601A69606A2A
:105080000A401A611A6942EA0042A06A02431A61A0
:105090005A690A405A615A69E16A42EA0142216B3F
:1050A0000A435A61DA6A94F8350094F8361002F02F
:1050B0007F42DA62DD6A94F834202A4342EA002211
:1050C00042EA0142DA625A6B42F006025A639A6976
:1050D00042F001029A6100200123C4F8A40084F880
:1050E000A13038BD0120FCE700F800F070477047A0
:1050F000036870B59E6B5D6B7207044614D5690733
:1051000012D55A6B22F004025A630422DA63D0F8F3
:10511000A43043F00103C0F8A430002380F8A1209C
:1051200080F8A030FFF7E2FFB20716D5AB0714D521
:1051300023685A6B22F002025A630222DA63D4F81F
:10514000A4301343C4F8A430042384F8A13000230E
:1051500084F8A0302046FFF7C9FFF00710D5E90713
:105160000ED523685A6B22F001025A630122DA63DA
:10517000002384F8A12084F8A0302046FCF74CFAE4
:10518000320711D52B070FD523685A6B22F008027E
:105190005A630822DA63012384F8A130002384F8DB
:1051A000A0302046FFF7A3FF70BD2DE9F04190F835
:1051B000A030012B06460F4694464FF002001FD048
:1051C0004FF0010886F8A08086F8A10034240D462F
:1051D00004FB02640FCD38340FC40FCD0FC40FCDC4
:1051E0000FC42B682360304662463946FFF796FEAF
:1051F00033680020C3F8248086F8A18086F8A000D8
:10520000BDE8F08190F8A020012A03464FF002008B
:1052100012D01A6883F8A100506B20F0010050638F
:1052200006480164516B41F00101516300200122E5
:1052300083F8A12083F8A000704700BF00680140F8
:1052400037B500230193184B184D1A6C42F0805269
:105250001A641B6C03F080530193019B144B0122D1
:105260001A64FEF75DFF04466B68DA030BD5104B3A
:105270000E4D01225A64FEF753FF04466B689B03F0
:105280000AD5002006E0FEF74BFF001BB0F57A7F41
:10529000EAD9032003B030BDFEF742FF001BB0F592
:1052A0007A7FEBD9F5E700BF00380240007000407C
:1052B00000000E422DE9F341044640B30368DE07C7
:1052C00010D423689D075BD42368190700F19D80E3
:1052D00023685A0700F1BD80A369002B40F02481A8
:1052E00000202CE08D4B9A6802F00C02042A07D0B3
:1052F0009A6802F00C02082A0BD15B68590208D5A3
:10530000864B1B689A03DCD56368002BD9D101203A
:1053100015E06368814DB3F5803F13D12B6843F4EA
:1053200080332B60FEF7FCFE7C4E054633689B0302
:10533000C7D4FEF7F5FE401B6428F7D9032002B05E
:10534000BDE8F081B3F5A02F04D12B6843F480238E
:105350002B60E3E72A6822F480322A602A6822F46C
:1053600080222A60002BDDD1FEF7DAFE06462B688C
:105370009F03A6D5FEF7D4FE801B6428F7D9DDE78E
:10538000664B9A6812F00C0F07D09A6802F00C0274
:10539000082A11D15B685D020ED4604A1368990730
:1053A00002D5E368012BB2D11368216923F0F80319
:1053B00043EAC103136087E7E268594BB2B10122A7
:1053C0001A60FEF7ADFE554D06462B689B0707D5C4
:1053D0002B68226923F0F80343EAC2032B6073E7CA
:1053E000FEF79EFE801B0228EFD9A7E71A60FEF7A2
:1053F00097FE4A4E054633689F077FF565AFFEF777
:105400008FFE401B0228F6D998E76269444B82B1AF
:105410000122C3F8802EFEF783FE404E0546736FCF
:105420009B073FF555AFFEF77BFE401B0228F6D9E0
:1054300084E7C3F8802EFEF773FE384E0546736F7F
:105440009F077FF545AFFEF76BFE401B0228F6D99C
:1054500074E7324B1A6C12F0805228D101921A6C08
:1054600042F080521A641B6C03F080530193019B3D
:1054700001272C4D2B68D8051BD5A368274D012B80
:1054800027D12B6F43F001032B67FEF749FE234E14
:10549000054641F28838336F9A0739D5002F3FF41B
:1054A0001BAF1E4A136C23F08053136414E70027CC
:1054B000DFE72B6843F480732B60FEF731FE06466E
:1054C0002B68D905D9D4FEF72BFE801B0228F7D90B
:1054D00034E7052B04D12B6F43F004032B67D0E78F
:1054E0002A6F22F001022A672A6F22F004022A673B
:1054F000002BCAD1FEF714FE41F2883806462B6F06
:105500009B07CBD5FEF70CFE801B4045F7D915E76E
:10551000FEF706FE401B4045BDD90FE700380240AC
:105520000000474200700040374DAA6802F00C02AC
:10553000082A3ED0022B354B4FF000021A662BD1C1
:10554000FEF7EEFD06462B6899011FD4D4E9073219
:105550001343626A43EA8213E26A43EA0263A26A7D
:105560005208013A43EA02436B60284B264D012260
:105570001A66FEF7D5FD04462B689A013FF5B0AEDA
:10558000FEF7CEFD001B0228F6D9D7E6FEF7C8FDD0
:10559000801B0228D7D9D1E6FEF7C2FD04462B684E
:1055A0009B017FF59DAEFEF7BBFD001B0228F6D9DF
:1055B000C4E6012B3FF4ABAE6B68E26903F48001F3
:1055C00091427FF4A4AE216A03F03F028A427FF445
:1055D0009EAE616A47F6C0721A40B2EB811F7FF43B
:1055E00096AEA26A520803F44031013AB1EB024F81
:1055F0007FF48DAEE26A03F07063B3EB026F14BF09
:10560000012000209BE600BF003802400000474216
:10561000134908B58B6803F00C03042B1CD0082B2E
:105620001CD14A684B68496813F4800314BF0D48C5
:105630000D48C1F3881118BF002302F03F02A1FBFF
:105640000001FAF775FE064B5B68C3F301430133B3
:105650005B00B0FBF3F008BD0248FCE70248FAE744
:105660000038024000127A000024F4002DE9F041D5
:105670000D46044610B90120BDE8F081434B1A687D
:1056800002F00F028A4228D321688F072DD4C80761
:1056900040D43E4B1A6802F00F02AA4265D8226835
:1056A00051076BD4130707D5394A2169936823F44E
:1056B000604343EAC1039360FFF7AAFF344B354AC6
:1056C0009B68C3F30313D35CD840334B1860334B50
:1056D0001868FDF703F80020CEE7CAB21A701B68FD
:1056E00003F00F038B42C6D1CEE7294B11F0040F14
:1056F0001EBF9A6842F4E0529A600E0742BF9A6851
:1057000042F460429A609A68A06822F0F002024374
:105710009A60BCE762681E4B012A1CD11B6813F417
:10572000003FA8D01A4EB36823F003031343B360BD
:10573000FEF7F6FC41F288380746B368626803F06A
:105740000C03B3EB820FA4D0FEF7EAFCC01B40456C
:10575000F3D9032090E7911E01291B6802D813F0AA
:10576000007FDEE713F0020FDBE7EAB21A701B6876
:1057700003F00F03AB427FF47EAF90E70449E0688B
:105780008B6823F4E05303438B608BE7003C0240BB
:105790000038024094420208740000207C0000207F
:1057A000044B054A9B68C3F38223D35C034A106809
:1057B000D8407047003802408C4202087400002034
:1057C0000F2303600B4B9A6802F0030242609A6851
:1057D00002F0F00282609A6802F4E052C2609B68B4
:1057E000DB0803F4E0530361034B1B6803F00F0372
:1057F0000B60704700380240003C0240036813F021
:10580000430FF7B5044640F08780236813F00C0F70
:1058100045D08C4B8C4D00221A67FEF781FC064662
:105820002B68990000F1CA8021684A0715D5D4E990
:105830000403D5F888201B0602F0E04243EA8013F7
:105840001343C5F88830D5F88C30226A23F4F85316
:10585000013A43EA0223C5F88C300B0714D57A4A83
:10586000A369D2F8881020691B0701F0706143EA30
:1058700080130B43C2F88830D2F88C30616A23F46D
:1058800040330B43C2F88C306E4B6F4E01221A67C7
:10589000FEF746FC054633689F0040F1968023687A
:1058A000980633D500230193674B684D1A6C42F07C
:1058B00080521A641B6C03F080530193019B2B6888
:1058C00043F480732B60FEF72BFC06462B68D8054B
:1058D00040F182805C4D2B6F13F4407340F0838065
:1058E000A36A03F44072B2F5407F574A40F09F80AC
:1058F000916823F0704021F4F81120F440700143C6
:105900009160116FC3F30B030B4313672368DB062E
:1059100000F1918000204FE04A4B4B4E00229A66E6
:10592000FEF7FEFB054633681F013FD42168C80718
:1059300041BFD4E901231B0743EA8213C6F8843030
:105940008A0715D5404AE368D2F8840065681B06CB
:1059500000F0E04043EA85130343C2F88430D2F8F4
:105960008C00E36920F01F00013B0343C2F88C3038
:105970004B060AD5E36862681B0643EA8213A268F5
:1059800043EA0273304AC2F884302E4B2E4E012275
:105990009A66FEF7C5FB054633681F013FF535AF34
:1059A000FEF7BEFB401B0228F6D904E0FEF7B8FB69
:1059B000401B0228B7D9032003B0F0BDFEF7B0FBAF
:1059C000801B02287FF62CAFF5E7FEF7A9FB401BF2
:1059D00002287FF660AFEEE7FEF7A2FB801B0228ED
:1059E0007FF674AFE7E7A26A02F4407293423FF495
:1059F00077AF2B6F134A0121C2F8401E23F4407386
:105A00000021C2F8401E2B672B6FD9077FF568AFC6
:105A1000FEF786FB41F2883706462B6F9A073FF563
:105A20005FAFFEF77DFB801BB842F6D9C3E79168F4
:105A300021F4F81164E7064B94F82C20C3F8E02118
:105A400068E700BF00004742003802400070004095
:105A50000010474238B50D460446C8B190F82C30C6
:105A600003F0FF021BB980F82D20FCF7CBFD0223C9
:105A700084F82C30211D206800F00EFD626820683B
:105A8000294600F03FFD012384F82C30002038BD6A
:105A90000120FCE770B590F82C30022B05460E462D
:105AA000D8B212D000F0FB04012C0FD1022385F8EC
:105AB0002C30286800F05CFD3368022B06BF0523FC
:105AC00085F82C3085F82C40002070BD0120FCE7C3
:105AD00038B590F82C30022B0446D8B20DD094F88B
